{
  "_format": "hh-sol-artifact-1",
  "contractName": "SpeedFaucet",
  "sourceName": "contracts/SpeedFaucet.sol",
  "abi": [
    {
      "inputs": [
        {
          "internalType": "address",
          "name": "tokenAddress",
          "type": "address"
        }
      ],
      "stateMutability": "payable",
      "type": "constructor"
    },
    {
      "anonymous": false,
      "inputs": [
        {
          "indexed": true,
          "internalType": "address",
          "name": "from",
          "type": "address"
        },
        {
          "indexed": true,
          "internalType": "uint256",
          "name": "amount",
          "type": "uint256"
        }
      ],
      "name": "Deposit",
      "type": "event"
    },
    {
      "anonymous": false,
      "inputs": [
        {
          "indexed": true,
          "internalType": "address",
          "name": "to",
          "type": "address"
        },
        {
          "indexed": true,
          "internalType": "uint256",
          "name": "amount",
          "type": "uint256"
        }
      ],
      "name": "Withdrawal",
      "type": "event"
    },
    {
      "inputs": [],
      "name": "getBalance",
      "outputs": [
        {
          "internalType": "uint256",
          "name": "",
          "type": "uint256"
        }
      ],
      "stateMutability": "view",
      "type": "function"
    },
    {
      "inputs": [],
      "name": "lockTime",
      "outputs": [
        {
          "internalType": "uint256",
          "name": "",
          "type": "uint256"
        }
      ],
      "stateMutability": "view",
      "type": "function"
    },
    {
      "inputs": [],
      "name": "requestSpeed",
      "outputs": [],
      "stateMutability": "nonpayable",
      "type": "function"
    },
    {
      "inputs": [
        {
          "internalType": "uint256",
          "name": "time",
          "type": "uint256"
        }
      ],
      "name": "setLockTime",
      "outputs": [],
      "stateMutability": "nonpayable",
      "type": "function"
    },
    {
      "inputs": [
        {
          "internalType": "uint256",
          "name": "_amount",
          "type": "uint256"
        }
      ],
      "name": "setWithdrawAmount",
      "outputs": [],
      "stateMutability": "nonpayable",
      "type": "function"
    },
    {
      "inputs": [],
      "name": "token",
      "outputs": [
        {
          "internalType": "contract IERC20",
          "name": "",
          "type": "address"
        }
      ],
      "stateMutability": "view",
      "type": "function"
    },
    {
      "inputs": [],
      "name": "userBalance",
      "outputs": [
        {
          "internalType": "uint256",
          "name": "",
          "type": "uint256"
        }
      ],
      "stateMutability": "view",
      "type": "function"
    },
    {
      "inputs": [],
      "name": "withdraw",
      "outputs": [],
      "stateMutability": "nonpayable",
      "type": "function"
    },
    {
      "inputs": [],
      "name": "withdrawalAmount",
      "outputs": [
        {
          "internalType": "uint256",
          "name": "",
          "type": "uint256"
        }
      ],
      "stateMutability": "view",
      "type": "function"
    },
    {
      "stateMutability": "payable",
      "type": "receive"
    }
  ],
  "bytecode": "0x608060405268056bc75e2d6310000060025561012c6003556040516200115d3803806200115d833981810160405281019061003a9190610124565b80600160006101000a81548173ffffffffffffffffffffffffffffffffffffffff021916908373ffffffffffffffffffffffffffffffffffffffff160217905550336000806101000a81548173ffffffffffffffffffffffffffffffffffffffff021916908373ffffffffffffffffffffffffffffffffffffffff16021790555050610151565b600080fd5b600073ffffffffffffffffffffffffffffffffffffffff82169050919050565b60006100f1826100c6565b9050919050565b610101816100e6565b811461010c57600080fd5b50565b60008151905061011e816100f8565b92915050565b60006020828403121561013a576101396100c1565b5b60006101488482850161010f565b91505092915050565b610ffc80620001616000396000f3fe60806040526004361061008a5760003560e01c8063ae04d45d11610059578063ae04d45d1461015e578063bf15276514610187578063ceb04e29146101b2578063e6e268f4146101db578063fc0c546a14610206576100d5565b80630d668087146100da57806312065fe01461010557806323546492146101305780633ccfd60b14610147576100d5565b366100d557343373ffffffffffffffffffffffffffffffffffffffff167fe1fffcc4923d04b559f4d29a8bfc6cda04eb5b0d3c460751c2402c5c5cc9109c60405160405180910390a3005b600080fd5b3480156100e657600080fd5b506100ef610231565b6040516100fc9190610a83565b60405180910390f35b34801561011157600080fd5b5061011a610237565b6040516101279190610a83565b60405180910390f35b34801561013c57600080fd5b506101456102da565b005b34801561015357600080fd5b5061015c6105a1565b005b34801561016a57600080fd5b5061018560048036038101906101809190610acf565b61084c565b005b34801561019357600080fd5b5061019c6108f0565b6040516101a99190610a83565b60405180910390f35b3480156101be57600080fd5b506101d960048036038101906101d49190610acf565b610993565b005b3480156101e757600080fd5b506101f0610a3e565b6040516101fd9190610a83565b60405180910390f35b34801561021257600080fd5b5061021b610a44565b6040516102289190610b7b565b60405180910390f35b60035481565b6000600160009054906101000a900473ffffffffffffffffffffffffffffffffffffffff1673ffffffffffffffffffffffffffffffffffffffff166370a08231306040518263ffffffff1660e01b81526004016102949190610bb7565b602060405180830381865afa1580156102b1573d6000803e3d6000fd5b505050506040513d601f19601f820116820180604052508101906102d59190610be7565b905090565b600073ffffffffffffffffffffffffffffffffffffffff163373ffffffffffffffffffffffffffffffffffffffff1603610349576040517f08c379a000000000000000000000000000000000000000000000000000000000815260040161034090610c97565b60405180910390fd5b600254600160009054906101000a900473ffffffffffffffffffffffffffffffffffffffff1673ffffffffffffffffffffffffffffffffffffffff166370a08231306040518263ffffffff1660e01b81526004016103a79190610bb7565b602060405180830381865afa1580156103c4573d6000803e3d6000fd5b505050506040513d601f19601f820116820180604052508101906103e89190610be7565b1015610429576040517f08c379a000000000000000000000000000000000000000000000000000000000815260040161042090610d29565b60405180910390fd5b600460003373ffffffffffffffffffffffffffffffffffffffff1673ffffffffffffffffffffffffffffffffffffffff168152602001908152602001600020544210156104ab576040517f08c379a00000000000000000000000000000000000000000000000000000000081526004016104a290610de1565b60405180910390fd5b600354426104b99190610e30565b600460003373ffffffffffffffffffffffffffffffffffffffff1673ffffffffffffffffffffffffffffffffffffffff16815260200190815260200160002081905550600160009054906101000a900473ffffffffffffffffffffffffffffffffffffffff1673ffffffffffffffffffffffffffffffffffffffff1663a9059cbb336002546040518363ffffffff1660e01b815260040161055b929190610e64565b6020604051808303816000875af115801561057a573d6000803e3d6000fd5b505050506040513d601f19601f8201168201806040525081019061059e9190610ec5565b50565b60008054906101000a900473ffffffffffffffffffffffffffffffffffffffff1673ffffffffffffffffffffffffffffffffffffffff163373ffffffffffffffffffffffffffffffffffffffff161461062f576040517f08c379a000000000000000000000000000000000000000000000000000000000815260040161062690610f64565b60405180910390fd5b600160009054906101000a900473ffffffffffffffffffffffffffffffffffffffff1673ffffffffffffffffffffffffffffffffffffffff166370a08231306040518263ffffffff1660e01b815260040161068a9190610bb7565b602060405180830381865afa1580156106a7573d6000803e3d6000fd5b505050506040513d601f19601f820116820180604052508101906106cb9190610be7565b3373ffffffffffffffffffffffffffffffffffffffff167f7fcf532c15f0a6db0bd6d0e038bea71d30d808c7d98cb3bf7268a95bf5081b6560405160405180910390a3600160009054906101000a900473ffffffffffffffffffffffffffffffffffffffff1673ffffffffffffffffffffffffffffffffffffffff1663a9059cbb33600160009054906101000a900473ffffffffffffffffffffffffffffffffffffffff1673ffffffffffffffffffffffffffffffffffffffff166370a08231306040518263ffffffff1660e01b81526004016107a89190610bb7565b602060405180830381865afa1580156107c5573d6000803e3d6000fd5b505050506040513d601f19601f820116820180604052508101906107e99190610be7565b6040518363ffffffff1660e01b8152600401610806929190610e64565b6020604051808303816000875af1158015610825573d6000803e3d6000fd5b505050506040513d601f19601f820116820180604052508101906108499190610ec5565b50565b60008054906101000a900473ffffffffffffffffffffffffffffffffffffffff1673ffffffffffffffffffffffffffffffffffffffff163373ffffffffffffffffffffffffffffffffffffffff16146108da576040517f08c379a00000000000000000000000000000000000000000000000000000000081526004016108d190610f64565b60405180910390fd5b603c816108e79190610f84565b60038190555050565b6000600160009054906101000a900473ffffffffffffffffffffffffffffffffffffffff1673ffffffffffffffffffffffffffffffffffffffff166370a08231336040518263ffffffff1660e01b815260040161094d9190610bb7565b602060405180830381865afa15801561096a573d6000803e3d6000fd5b505050506040513d601f19601f8201168201806040525081019061098e9190610be7565b905090565b60008054906101000a900473ffffffffffffffffffffffffffffffffffffffff1673ffffffffffffffffffffffffffffffffffffffff163373ffffffffffffffffffffffffffffffffffffffff1614610a21576040517f08c379a0000000000000000000000000000000000000000000000000000000008152600401610a1890610f64565b60405180910390fd5b670de0b6b3a764000081610a359190610f84565b60028190555050565b60025481565b600160009054906101000a900473ffffffffffffffffffffffffffffffffffffffff1681565b6000819050919050565b610a7d81610a6a565b82525050565b6000602082019050610a986000830184610a74565b92915050565b600080fd5b610aac81610a6a565b8114610ab757600080fd5b50565b600081359050610ac981610aa3565b92915050565b600060208284031215610ae557610ae4610a9e565b5b6000610af384828501610aba565b91505092915050565b600073ffffffffffffffffffffffffffffffffffffffff82169050919050565b6000819050919050565b6000610b41610b3c610b3784610afc565b610b1c565b610afc565b9050919050565b6000610b5382610b26565b9050919050565b6000610b6582610b48565b9050919050565b610b7581610b5a565b82525050565b6000602082019050610b906000830184610b6c565b92915050565b6000610ba182610afc565b9050919050565b610bb181610b96565b82525050565b6000602082019050610bcc6000830184610ba8565b92915050565b600081519050610be181610aa3565b92915050565b600060208284031215610bfd57610bfc610a9e565b5b6000610c0b84828501610bd2565b91505092915050565b600082825260208201905092915050565b7f496e76616c6964204163636f756e742c20706c6561736520656e74657220766160008201527f6c6964206163636f756e74206164647265737300000000000000000000000000602082015250565b6000610c81603383610c14565b9150610c8c82610c25565b604082019050919050565b60006020820190508181036000830152610cb081610c74565b9050919050565b7f496e73756666696369656e742062616c616e636520696e20746865206661756360008201527f6574000000000000000000000000000000000000000000000000000000000000602082015250565b6000610d13602283610c14565b9150610d1e82610cb7565b604082019050919050565b60006020820190508181036000830152610d4281610d06565b9050919050565b7f596f752068617665206a7573742072657175657374656420746f6b656e732e2060008201527f546f2072657175657374206d6f726520746f6b656e7320706c6561736520747260208201527f7920616674657220736f6d652074696d652e0000000000000000000000000000604082015250565b6000610dcb605283610c14565b9150610dd682610d49565b606082019050919050565b60006020820190508181036000830152610dfa81610dbe565b9050919050565b7f4e487b7100000000000000000000000000000000000000000000000000000000600052601160045260246000fd5b6000610e3b82610a6a565b9150610e4683610a6a565b9250828201905080821115610e5e57610e5d610e01565b5b92915050565b6000604082019050610e796000830185610ba8565b610e866020830184610a74565b9392505050565b60008115159050919050565b610ea281610e8d565b8114610ead57600080fd5b50565b600081519050610ebf81610e99565b92915050565b600060208284031215610edb57610eda610a9e565b5b6000610ee984828501610eb0565b91505092915050565b7f4f6e6c7920746865206f776e65722063616e206368616e67652074686973207660008201527f616c756500000000000000000000000000000000000000000000000000000000602082015250565b6000610f4e602483610c14565b9150610f5982610ef2565b604082019050919050565b60006020820190508181036000830152610f7d81610f41565b9050919050565b6000610f8f82610a6a565b9150610f9a83610a6a565b9250828202610fa881610a6a565b91508282048414831517610fbf57610fbe610e01565b5b509291505056fea26469706673582212209ef159b6863206599778f6b02498d119eee772b8442a6aeed30633a31e7f8be764736f6c63430008110033",
  "linkReferences": {},
  "deployedLinkReferences": {}
}